:020000040800F2
:1000000050070020890100088D0100088F010008B9
:10001000910100089301000895010008000000000C
:100020000000000000000000000000009701000830
:1000300099010008000000009B0100089D010008D4
:100040009F0100089F0100089F0100089F01000810
:100050009F0100089F0100089F0100089F01000800
:100060009F0100089F0100089F0100089F010008F0
:100070009F0100089F0100089F0100089F010008E0
:100080009F0100089F0100089F0100089F010008D0
:100090009F0100089F0100089F0100089F010008C0
:1000A0009F0100089F0100089F0100089F010008B0
:1000B0009F0100089F0100089F0100089F010008A0
:1000C0009F0100089F0100089F0100089F01000890
:1000D0009F010008C50F00089F0100089F0100084C
:1000E0009F0100089F0100089F01000800F002F82E
:1000F00000F03AF80AA090E8000C82448344AAF188
:100100000107DA4501D100F02FF8AFF2090EBAE885
:100110000F0013F0010F18BFFB1A43F0010318473B
:100120002C2000004C200000103A24BF78C878C171
:10013000FAD8520724BF30C830C144BF04680C60ED
:10014000704700000023002400250026103A28BF35
:1001500078C1FBD8520728BF30C148BF0B60704739
:100160001FB51FBD10B510BD00F06AF81146FFF7AE
:10017000F7FF00F0E3FF00F09CF803B4FFF7F2FF95
:1001800003BC00F08BFF000008480047FEE7FEE7D5
:10019000FEE7FEE7FEE7FEE7FEE7FEE7FEE7FEE737
:1001A00003480449044A054B70470000ED0000086D
:1001B0005001002050070020500300205003002071
:1001C000704700000FB4044910B503AA029800F06C
:1001D00009F810BC5DF814FB080000207047704758
:1001E00070477047074B70B50D467B4400F011F81F
:1001F0000446284600F020F810B14FF0FF3070BDE3
:10020000204670BD330F000001694A1C0261087866
:10021000704700B58FB0CDE9013100210591054946
:100220007944CDE903101146684600F02EF80FB06E
:1002300000BD0000E5FFFFFF007B00F0800070477D
:10024000754600F03FF8AE4605006946534620F07B
:100250000700854618B020B5FFF7A2FFBDE8204093
:100260004FF000064FF000074FF000084FF0000B72
:1002700021F00701AC46ACE8C009ACE8C009ACE825
:10028000C009ACE8C0098D4670472DE9F04106462B
:100290000024D6E90170F5688046304603E0414607
:1002A000B847641C3046A8470028F8D12046BDE86E
:1002B000F08110B50446AFF300802046BDE8104041
:1002C000FFF75BBF00487047EC000020684880697A
:1002D00040F00400664988616648006820F00F001D
:1002E000644908600846006820F0F000086008468D
:1002F000006820F4706008605D48806940F4007018
:100300005B4988610846C06840F40070C8600846D0
:10031000C06820F40070C8600846406820F440407F
:1003200048600846406840F4004048605248006811
:10033000524908405049086008460068086008466D
:10034000006820F4807008600846006840F48070FF
:100350000860081D006820F00200091D08600846BA
:10036000006840F0020008600846006820F4602041
:1003700008600846006840F460200860084600688D
:1003800020F4801008600846006840F4801008607F
:100390000846006820F4006008603748283000688C
:1003A00020F470003449283108600846006808606D
:1003B0000846006840F4001008602F48303000689C
:1003C0002D4930310860084600680860084600681A
:1003D00040F0200008600846006840F400600860B3
:1003E00025480C30006820F0070023490C310860D4
:1003F0000846006840F0070008600846006820F0E2
:10040000380008600846006840F038000860084678
:10041000006820F4E07008600846006840F038008A
:1004200008601548001D006840F001001249091DD0
:1004300008600846006840F00800086000BF0E48E9
:10044000001D006800F008000028F8D10A48001DCF
:10045000006840F004000849091D086000BF064814
:10046000001D006800F004000028F8D1704700006B
:10047000001002400008014004240140FFFFF0008A
:1004800070B505460E461446A4F130000A2842D243
:10049000DFE800F0050B11171D23292F353B1FA2A4
:1004A0003146284600F06AFA35E01DA2314628465A
:1004B00000F064FA2FE01BA23146284600F05EFAF5
:1004C00029E019A23146284600F058FA23E017A285
:1004D0003146284600F052FA1DE015A23146284662
:1004E00000F04CFA17E013A23146284600F046FA15
:1004F00011E011A23146284600F040FA0BE00FA2AD
:100500003146284600F03AFA05E00DA23146284669
:1005100000F034FA00BF00BF70BD000030000000E2
:100520003100000032000000330000003400000001
:1005300035000000360000003700000038000000E1
:100540003900000010B500F051F903A2002108465F
:1005500000F014FA10BD0000454E442100000000D8
:1005600001460F48006820F01F000D4A1060104639
:100570000068084310600A482C38006840F4800086
:10058000074A2C3A106000BF05483438006800F074
:1005900002000028F8D002481830006880B2704786
:1005A000342401402DE9F04107460C460025002681
:1005B00008E03846FFF7D4FF0544052000F092FD1F
:1005C000701CC6B2A642F4DBB5FBF4F0C0F30F100A
:1005D000BDE8F0810120064908600649C1F88401A0
:1005E00000200349091D08600249C1F880017047D5
:1005F000808121420080214200200649086006498E
:10060000C1F884010120034908600349C1F884014D
:1006100070470000808121420080214210B50920EE
:1006200000F0FCFB4FF4E131482000F071FE48205F
:1006300000F038FD00F00CF80021FF2000F036FC3F
:10064000FFF744FE00F00CF90A2000F04BFD10BD4E
:100650001D48806940F008001B4988611B480068FC
:1006600020F07060194908600846006840F040704A
:10067000086016480C30006814490C3108601348B3
:10068000006820F07040114908600846006840F09A
:10069000405008600D480C3000680C490C3108606F
:1006A0000A48001D006820F00F000849091D086075
:1006B0000846006840F00300086004480C300068F9
:1006C00002490C310860704700100240000C0140E4
:1006D00000B5002015490861C86014204861002059
:1006E0008861C8610846006840F00100086008465B
:1006F00040680F4908400D494860084600680D49A8
:1007000008400A4908600846006820F48020086014
:100710000846406820F4FE00486000208860002100
:100720004FF0006000F058F800BD000000100240DB
:100730000000FFF8FFFFF6FE2DE9F041074688466E
:1007400014461D46284600F033F8C5F1040007FAA8
:1007500000F60F20284100EA0800064306F00F06C5
:10076000E21704EBD2625211920002F1E022D2F8B9
:1007700000212146E31704EBD3635B11A4EB431C78
:10078000012303FA0CF31A432046E31704EBD36367
:100790005B119B0003F1E023C3F800210348005DD7
:1007A00040EA061001490855BDE8F08100E400E088
:1007B0000146072323EA01021202054B18684FF68F
:1007C000FF031840034B18431043014B1860704758
:1007D0000CED00E00000FA05024A0A400243024B19
:1007E0001A60704780FFFF1F08ED00E030B500245D
:1007F00015E004F1B001C8B200F018F9012000F0D2
:1008000015F9102000F012F9002504E0002000F096
:100810001DF9681CC5B2802DF8DB601CC4B2082C21
:10082000E7DB30BD70B50646002415E004F1B001E9
:10083000C8B200F0FBF8012000F0F8F8102000F03A
:10084000F5F8002504E0304600F000F9681CC5B258
:10085000802DF8DB601CC4B2082CE7DB70BD000003
:1008600010B54448806940F0080042498861424818
:10087000006820F00F00404908600846006840F01A
:10088000030008603C480C3000683B490C310860AC
:100890003948006820F0F0003749086008460068D1
:1008A00040F03000086034480C30006832490C31A8
:1008B00008604FF4FA7000F015FCAE2000F0B6F8B6
:1008C000002000F0B3F8102000F0B0F8402000F055
:1008D000ADF8812000F0AAF8CF2000F0A7F8A12001
:1008E00000F0A4F8C82000F0A1F8A62000F09EF8BF
:1008F000A82000F09BF83F2000F098F8D32000F0EB
:1009000095F8002000F092F8D52000F08FF88020B4
:1009100000F08CF8D92000F089F8F12000F086F87A
:10092000DA2000F083F8122000F080F8DB2000F0DD
:100930007DF8402000F07AF8202000F077F80220BF
:1009400000F074F88D2000F071F8142000F06EF8BB
:10095000A42000F06BF8A62000F068F8AF2000F0AB
:1009600065F80020FFF75EFF0021084600F04AF816
:1009700010BD000000100240000C01402DE9F043C2
:1009800006460F46904600250024A14631E018F89F
:1009900009002038C5B2782E02DD0026781CC7B2C7
:1009A0003946304600F02EF8002407E004EB05112C
:1009B000134A505C00F04AF8601CC4B2082CF5DB06
:1009C000781CC1B2304600F01DF8002408E004EBAA
:1009D000051108310A4A505C00F038F8601CC4B2B6
:1009E000082CF4DB06F10800C6B209F1010000F0A2
:1009F000FF0918F809000028C9D1BDE8F0830000FC
:100A00005A1B000830B504460D4605F1B001C8B2C6
:100A100000F00CF8102141EA141000F007F804F07F
:100A20000F0141F0010000F001F830BD10B504469F
:100A3000FFF7D0FD782000F007FB002000F004FB5A
:100A4000204600F001FBFFF7D7FD10BD10B50446AE
:100A5000FFF7C0FD782000F0F7FA402000F0F4FA2C
:100A6000204600F0F1FAFFF7C7FD10BD2DE9F05F59
:100A700004460D4617461E46DDE90CABDDE90A8942
:100A8000FFF7B4FE1EA200210846FFF777FF2246BB
:100A900000211820FFF7F4FC2A4600212020FFF750
:100AA000EFFC3A4600212820FFF7EAFC15A20221BC
:100AB0000020FFF763FF324602211820FFF7E0FC19
:100AC000424602212020FFF7DBFC4A460221282073
:100AD000FFF7D6FC0CA204210020FFF74FFF52467F
:100AE00004211820FFF7CCFC5A4604212020FFF7F0
:100AF000C7FC042128200E9AFFF7C2FCBDE8F09F36
:100B0000523A0000473A0000423A000010B586B061
:100B10004548008800F4004000287DD04248007815
:100B20004249087042A0FFF74DFB0020454908707C
:100B30001AE0454843490978405C4449414A1278E3
:100B4000885441483F490978405C4149088000BFCA
:100B50003F48001F008800F040000028F8D03948C6
:100B60000078401C37490870364800782F490978CA
:100B70008842DEDB00202C4908803448007B212895
:100B80004FD1324840783038642148432F49897822
:100B9000303901EB810100EB41012C48C07830383D
:100BA00008442C490880294840793038642148435A
:100BB00026498979303901EB810100EB4101234855
:100BC000C079303808442349091D08801F48407AFD
:100BD0003038642148431D49897A303901EB81015D
:100BE00000EB41011948C07A3038084419490831EE
:100BF00008801648C07A1549897A144A527A134BEC
:100C0000DB79CDE90132CDE90310104880790F4C32
:100C100000906379E27800E003E0A1786078FFF764
:100C200025FF06B010BD00000C00002001000020D0
:100C30000D0AC4FAB7A2CBCDB5C4CFFBCFA2CEAAC2
:100C40003A0D0A00000000202400002010000020BF
:100C500004380140340800402DE9F04F87B0634864
:100C6000008800F4004000287DD06048007860498A
:100C7000087060A0FFF7A6FA0020634908701AE028
:100C8000624861490978405C61495F4A127888543A
:100C90005E485D490978405C5E49088000BF5D4858
:100CA000001F008800F040000028F8D05648007867
:100CB000401C55490870544800784D4909788842CD
:100CC000DEDB0020494908805148007861284AD17C
:100CD0004F484078642846D14D488078632842D1F7
:100CE0000A210020FFF75EFC4B4908800A21012001
:100CF000FFF758FC4849091D08800A210220FFF728
:100D000051FC4549083108800A210220FFF74AFCBE
:100D10000A2190FBF1F201FB12003030C4B2022034
:100D2000FFF740FC0A2190FBF1F090FBF1F201FB90
:100D300012003030C5B20220FFF734FC642190FB72
:100D4000F1F03030C6B20A210120FFF72BFC0A2156
:100D500090FBF1F201FB12003030C7B20120FFF727
:100D600021FC0A2100E03DE090FBF1F090FBF1F264
:100D700001FB1200303000F0FF080120FFF712FCE9
:100D8000642190FBF1F0303000F0FF090A210020CF
:100D9000FFF708FC0A2190FBF1F201FB1200303052
:100DA00000F0FF0A0020FFF7FDFB0A2190FBF1F0A5
:100DB00090FBF1F201FB1200303000F0FF0B00203D
:100DC000FFF7F0FB642190FBF1F03030C0B24B46EE
:100DD00052465946CDE90087CDE902650494069054
:100DE000FFF744FE07B0BDE8F08F00000C000020C4
:100DF000010000200D0AC4FAB7A2CBCDB5C4CFFBC9
:100E0000CFA2CEAA3A0D0A00000000202400002044
:100E100010000020043801403408004030B504467A
:100E20000025FFF755FC1F48006840F480301D493D
:100E3000086000BF1B480068400C0028FAD04FF43F
:100E4000806018494860A01EC4B20846406840EA65
:100E5000844048600846406840F48030486012484A
:100E6000006840F03200104908600E48006840F009
:100E700080700C49086000BF0A480068400E0028D6
:100E8000FAD00848406840F002000649486005E092
:100E900004484068C0F3870505F00305022DF7D12B
:100EA00030BD00000010024000200240414AD269DB
:100EB00042F004023F4BDA611A46926942F008029E
:100EC0009A613D4A126822F070623B4B1A601A46E2
:100ED000126842F030621A601A46126822F07042BC
:100EE0001A601A46126842F030421A601A1D1268DF
:100EF00022F00F021B1D1A601A46126842F00B0204
:100F00001A602C4A926942F001022A4B9A612B4ADC
:100F1000526822F48052294B5A601A4652685A602D
:100F2000274A1080121F1180254A143A128842F075
:100F30006002234B143B1A801A46128842F00802C2
:100F40001A801F4A0C3A128842F001021C4B0C3BDB
:100F50001A801B4A143A128842F4C042184B143BC0
:100F60001A801A46128842F400621A80144A0C3A17
:100F7000128842F01002124B0C3B1A801A1F128882
:100F800042F060021B1F1A801A46128842F00802C3
:100F90001A801A1D128842F480721B1D1A8080224A
:100FA000074B2C3B1A801A46128842F001021A8025
:100FB0007047000000100240000C0140000001409A
:100FC0002C0800401D49098801F0200111B31B497C
:100FD000091D0988C8B21A49098801F40041C9B934
:100FE0001749098801F4804161B10A2803D0002122
:100FF000134A118020E01249098841F40041104A47
:10100000118019E00D2806D10D49098841F480416D
:101010000B4A118010E00A490988C1F30D01094A01
:10102000505407490988491C054A1180114609880E
:10103000C72901DD00211180704700000038014000
:101040000C00002024000020002115E000F08002A8
:101050001AB101220F4B1A6002E000220D4B1A60F8
:1010600001220C4B1B1F1A6000220B4BC3F880217E
:101070004206100E4A1CD1B20829E7DB0122054BBB
:101080001A60054BC3F880210022024B1B1F1A6017
:10109000704700008481214200802142014600BF48
:1010A000704700004FF0E021096921F004014FF082
:1010B000E0221161C21700EB5272C2F3C702074B64
:1010C0001A701946097801EB4102C2EBC1114FF6C3
:1010D000FF7202EAC101024A11807047020000203B
:1010E0000400002001460D4A12884A434FF0E023D5
:1010F0005A6100229A6101221A6100BF4FF0E0227A
:10110000106900F001021AB100F48032002AF5D013
:1011100000224FF0E0231A619A617047040000201A
:1011200000BF054A128802F04002002AF9D0C2B27C
:10113000014B1B1D1A80704700380140FFF76EFA03
:10114000C5E06348008800F400400028F8D06048FB
:1011500000786049087060A0FFF734F80020634908
:1011600008701AE0624861490978405C61495F4A49
:10117000127888545E485D490978405C5E49088071
:1011800000BF5D48001F008800F040000028F8D034
:1011900056480078401C55490870544800784D491D
:1011A00009788842DEDB00204949088051480078F0
:1011B000732836D14F484078742832D14D48807812
:1011C00061282ED14B48C07872282AD1494800792D
:1011D000312826D10020494908806420091D088053
:1011E0000020091D0880FFF701FB45A200210846E9
:1011F000FFF7C4FB4FF47A70FFF774FF00203F49FC
:10120000091D088001E0FFF781FC3A480078652855
:10121000F9D1384840786E28F5D13648807864286E
:10122000F1D134480078732835D132484078742899
:1012300031D13048807861282DD12E48C07872286D
:1012400029D12C480079322825D100202B4908804B
:10125000091D08806420091D0880FFF7C7FA2AA22B
:1012600000210846FFF78AFB4FF47A70FFF73AFF38
:10127000002022490831088001E0FFF7EDFC1D48FD
:1012800000786528F9D11B4840786E28F5D11948B7
:1012900080786428F1D117480078652817D115485F
:1012A00040786E2813D11348807864280FD11349F1
:1012B00008800020091D0880091D0880FFF742F9F9
:1012C0004FF47A70FFF70EFF00200C49088038E7D2
:1012D0000C000020010000200D0AC4FAB7A2CBCDFB
:1012E000B5C4CFFBCFA2CEAA3A0D0A000000002061
:1012F0002400002010000020043801403408004081
:1013000053544152312100005354415232210000C4
:101310002DE9F05F05460E46300100F0ABF981463D
:101320002E4905FB01F000F0A5F98246494600F080
:10133000BFF80746384600F07DF984B2204600F039
:1013400099F98346394600F075FA82464FF0834199
:1013500000F0A4F9814600F06DF980464FF6FF7069
:1013600000EA041404EB080084B21D48806940F0D0
:1013700004001B4988610846806940F48040886108
:101380001848006820F47F60164908600846006825
:1013900040F40B6008601248C06840F48040104977
:1013A000C8600846C06820F48040C8600E480480C9
:1013B000001D008842F20C0108430B49091D0880FA
:1013C0000846008840F020000880022325220321DF
:1013D0000846FFF7B1F9BDE8F09F000040420F005A
:1013E00000100240040801400838014090EA010F53
:1013F00048BF81F0004100F12E82421A3CBF801AA2
:1014000089184FEAD0524FF07F4C1CEA410FA2EBF3
:10141000D15318BF9CEA026F00F03B804FF0004CA4
:101420004CEA00204CEA012121FA03FC10EB0C0CE1
:101430001ED202F1FF325FEA1C2040EBC25038BFDF
:1014400070471CF07F0F4FEA400C18BFBCF17F4F74
:1014500038BF7047C3F12003994008BF20F0010056
:10146000BCF17F4F38BF7047A0F1C04000F0DDB93C
:101470004FEA3C00000A40EBC25028BF1CF0FF0FAF
:101480004FEA400CE6D018BFBCF17F4F38BF704721
:10149000EAE79CEA026F05D010EA5C0F08BF00F093
:1014A0000040704710B500F07AF900BF64FBBE3E03
:1014B0004FF47F0C1CEAD0121EBF1CEAD11392EA33
:1014C0000C0F93EA0C0F00F0858090EA010F48BFE3
:1014D00042F4807240F4000C41F400002CF07F4193
:1014E00020F07F4000B58142A2EB03020FF2081CFE
:1014F000ACEB504EC0F100009EF800E04FEA4E0EFB
:1015000000FB0EFC38BF49004FEA2C1C02F5FA0222
:101510000CFB0EF34FEACE1E4FEA112C4FEAC1210D
:101520000EEB635E42EB22420EFB0CFC4FEA1C53B7
:1015300000FB03114FEA112C4FEA01310EFB0CFCAA
:101540004FEADC4C00FB0C11C14228BF09184CEBE0
:1015500003335DF804EB10EB410143EBC250B2F5ED
:101560007C0F38BF704729D512F0F00F1CBF00F177
:10157000C04000F0004070470081828384858687E8
:1015800088898B8C8D8E8F919293959697999A9C42
:101590009D9FA0A2A3A5A7A8AAACAEB0B2B3B5B7B1
:1015A000B9BCBEC0C2C5C7C9CCCED1D4D7D9DCDF87
:1015B000E2E6E9ECF0F3F7FAFE0000004FEA400C37
:1015C0000CF1807CBCF17E4F28BF7047B0F1C04069
:1015D00000F02BB990EA010F0CEAD11348BF42F496
:1015E0008072624538BF634507D213F47F0F16D06F
:1015F00080EA010000F00040704710B500F0CFF81D
:10160000097EFC3E00F005B880EA010000F00040D1
:10161000704780EA010000F0004000F006B912F4C3
:101620007F0F04BF0248704780EA010000F0FDB858
:101630000000C07FC10DD1F19E0206DB4FEA0023FE
:1016400043F0004323FA02F07047004207D54FEA07
:101650004001B1F1FE4F02D24FF00000704710B5CB
:1016600000F09DF849922480002070476FEA200026
:1016700070470000B0FA80F310FA03F2C3F19D0343
:101680000AD0D90501EB1220530638BF704700F18C
:10169000010008BF20F00100704700004FF47F0CEC
:1016A0001CEAD0121EBF1CEAD11392EA0C0F93EA77
:1016B0000C0F00F0478090EA010F48BF42F480729F
:1016C0004FF0004C4CEA00204CEA012102EB0302EF
:1016D000A0FB0113A2F50002002918BF43F001038B
:1016E0005B0028BF4FEA330342EB22425FEA132C30
:1016F0004CEBC2502EBFBCEB436FB2F57C0F704772
:101700004FEA036CBCF1004F08BF20F00100B2F5B6
:101710007C0F38BF70470BD582F0FF0212F5803F77
:10172000C8BF704700F1C040D8BF00F0004070470C
:1017300000F5000C5FEA4C0C48BF7047B0F1C040A8
:1017400000F073B890EA010F0CEAD11348BF42F4DD
:101750008072624538BF634504D280EA010000F020
:101760000040704710B500F01AF800BF8900013E34
:1017700000F007B800F009B85FEA410C5FEA1C6CA2
:1017800008D080EA010000F050B85FEA400C5FEA40
:101790001C6CF6D14FF00040A0F5800070470EF1B0
:1017A000020E2EF0030E5EF8044B244204D44FEADE
:1017B0004102B2F17F4F11D84FEA4003B3F17F4F9E
:1017C0000CD80ED14FEAD07CB2F17F4F0CEB4C0C11
:1017D0000CF1020C08BF4CEBD17C04E04FF0080C7C
:1017E00001E04FEAD17C0CEB4C0324FA03F404F043
:1017F0000704B4F1040C06D20EEB840CBDE81040D3
:101800004CF0010C6047DFE80CF0070802024FF0D3
:101810000040A0F5800010BD0846420018BFD2F17C
:10182000807288BF00F0004010BDFF2141EAD05017
:10183000C005704780F0004090EA010F7FF5DDADF4
:1018400081F0004100F007B890EA010F48BF81F035
:1018500000413FF5D2AD421A04D882F00042A0EB1D
:10186000020011444FEAD0524FF07F4C1CEA410F66
:10187000A2EBD15318BF9CEA026F4AD04FF0004C44
:101880004CEA00204CEA012121FA03FCB0EB0C0CDD
:101890000FD412F0FE0F36D05FEA4C001DD50012B7
:1018A00040EBC25038BF70471CF03F0F18BF704765
:1018B0000BE0A2F101025FEA1C2040EBC25038BFEE
:1018C00070471CF07F0F18BF7047C3F12003994089
:1018D00014BF401E20F00100704780084FEA122319
:1018E00008BF7047B0FA80FCA2EB0C02CCF1280CC8
:1018F00060FA0CF093EA122F04BF00EBC25070475D
:101900004FEAC3707047130A5FEADC1008BF7047E4
:10191000F6E79CEA026F04D010EA5C0F08BF0020D3
:10192000704710B5FFF73BFF40DFF63E81F0004007
:1019300070470000000000000000002F00000000C1
:101940000700070000147F147F1400242A7F2A1246
:101950000062640813230036495522500000050335
:10196000000000001C224100000041221C00001465
:10197000083E08140008083E0808000000A06000A7
:101980000008080808080000606000000020100837
:101990000402003E5149453E0000427F40000042A3
:1019A00061514946002141454B31001814127F1006
:1019B000002745454539003C4A4949300001710935
:1019C000050300364949493600064949291E0000E9
:1019D0003636000000005636000000081422410090
:1019E00000141414141400004122140800020151C0
:1019F000090600324959513E007C1211127C007FC9
:101A000049494936003E41414122007F4141221C63
:101A1000007F49494941007F09090901003E4149C8
:101A2000497A007F0808087F0000417F41000020BC
:101A300040413F01007F08142241007F4040404068
:101A4000007F020C027F007F0408107F003E4141AE
:101A5000413E007F09090906003E4151215E007F99
:101A6000091929460046494949310001017F010110
:101A7000003F4040403F001F2040201F003F4038B3
:101A8000403F0063140814630007087008070061F2
:101A90005149454300007F41410000552A552A55D0
:101AA000000041417F000004020102040040404068
:101AB0004040000001020400002054545478007F8C
:101AC0004844443800384444442000384444487F63
:101AD00000385454541800087E0901020018A4A4C8
:101AE000A47C007F080404780000447D400000408E
:101AF00080847D00007F102844000000417F40006A
:101B0000007C04180478007C0804047800384444FD
:101B1000443800FC242424180018242418FC007CD9
:101B20000804040800485454542000043F44402052
:101B3000003C4040207C001C2040201C003C4030E9
:101B4000403C004428102844001CA0A0A07C004475
:101B500064544C44141414141414000000000000C5
:101B600000000000000000000000000000F800007D
:101B70000000000000333000000000100C06100CC4
:101B80000600000000000000000040C07840C0785F
:101B90004000043F04043F040400007088FC083047
:101BA0000000001820FF211E0000F008F000E018DF
:101BB000000000211C031E211E0000F00888700098
:101BC00000001E2123241927211010160E000000EA
:101BD00000000000000000000000000000E0180409
:101BE0000200000000071820400000020418E00076
:101BF00000000040201807000000404080F08040B6
:101C000040000202010F01020200000000F000008B
:101C100000000101011F010101000000000000009F
:101C2000000080B070000000000000000000000014
:101C3000000000010101010101010000000000009D
:101C40000000003030000000000000000000806054
:101C50001804006018060100000000E010080810D9
:101C6000E000000F102020100F00001010F80000FE
:101C700000000020203F2020000000700808088895
:101C80007000003028242221300000300888884865
:101C900030000018202020110E000000C02010F895
:101CA000000000070424243F240000F80888880866
:101CB00008000019212020110E0000E0108888186B
:101CC0000000000F112020110E0000380808C8384D
:101CD00008000000003F000000000070880808882D
:101CE0007000001C222121221C0000E010080810B6
:101CF000E0000000312222110F00000000C0C000EF
:101D000000000000003030000000000000800000F3
:101D100000000000806000000000000080402010F3
:101D200008000001020408102000404040404040EC
:101D3000400004040404040404000008102040804F
:101D40000000002010080402010000704808080884
:101D5000F0000000003036010000C030C828E81054
:101D6000E0000718272423140B000000C038E0000F
:101D70000000203C23020227382008F88888887059
:101D80000000203F202020110E00C0300808080865
:101D90003800071820202010080008F8080808104C
:101DA000E000203F202020100F0008F88888E80875
:101DB0001000203F20202320180008F88888E80819
:101DC0001000203F200003000000C0300808083841
:101DD000000007182020221E020008F80800000852
:101DE000F808203F210101213F20000808F80808D9
:101DF00000000020203F2020000000000808F80814
:101E00000800C08080807F00000008F888C0281883
:101E10000800203F20012638200008F808000000B4
:101E20000000203F20202020300008F8F800F8F8BB
:101E30000800203F003F003F200008F830C00008A5
:101E4000F808203F200007183F00E010080808109D
:101E5000E0000F10202020100F0008F808080808E4
:101E6000F000203F210101010000E01008080810E7
:101E7000E0000F18242438504F0008F8888888881C
:101E80007000203F2000030C3020007088080808F4
:101E900038000038202121221C00180808F8080802
:101EA00018000000203F2000000008F8080000088B
:101EB000F808001F202020201F000878880000C894
:101EC0003808000007380E010000F80800F8000884
:101ED000F800033C0700073C03000818688080688E
:101EE000180820302C03032C30200838C800C838CC
:101EF00008000000203F2000000010080808C83833
:101F000008002038262120201800000000FE0202D0
:101F100002000000007F40404000000C30C0000084
:101F20000000000000010638C00000020202FE00AE
:101F30000000004040407F00000000000402020258
:101F4000040000000000000000000000000000008D
:101F50000000808080808080808000020204000079
:101F60000000000000000000000000008080808071
:101F700000000019242222223F2008F8008080005F
:101F80000000003F112020110E0000000080808022
:101F90000000000E11202020110000000080808829
:101FA000F800000E112020103F200000808080806B
:101FB0000000001F222222221300008080F0888867
:101FC00088180020203F20200000000080808080B2
:101FD0008000006B94949493600008F800808080E7
:101FE0000000203F210000203F2000809898000042
:101FF00000000020203F2020000000000080989872
:10200000000000C08080807F000008F80000808011
:102010008000203F24022D302000000808F8000036
:1020200000000020203F20200000808080808080F1
:102030008000203F20003F20003F80800080808083
:102040000000203F210000203F2000008080808091
:102050000000001F202020201F00808000808000C2
:10206000000080FFA12020110E0000000080808071
:102070008000000E112020A0FF80808080008080E2
:10208000800020203F21200001000000808080800F
:1020900080000033242424241900008080E0808004
:1020A00000000000001F2020000080800000008051
:1020B0008000001F202020103F20808080000080B2
:1020C000808000010E3008060100808000800080C2
:1020D00080800F300C030C300F0000808000808067
:1020E00080000020312E0E31200080808000008092
:1020F000808080818E701806010000808080808042
:1021000080000021302C2221300000000000807C63
:10211000020200000000003F404000000000FF00FD
:10212000000000000000FF0000000002027C8000B0
:1021300000000040403F00000000000601010202D4
:102140000404000000000000000000006C210008F2
:102150000000002010000000280100087C21000879
:1021600010000020400700004401000800000000AB
:0C21700000000000000000000000000063
:04000005080000ED02
:00000001FF
